:100000000C9446000C9463000C9463000C94630001
:100010000C9463000C9463000C9463000C946300D4
:100020000C9463000C9463000C9463000C946300C4
:100030000C9463000C9463000C9463000C946300B4
:100040000C9463000C9463000C9463000C946300A4
:100050000C9463000C9463000C9463000C94630094
:100060000C9463000C9463000C9463000C94630084
:100070000C9463000C9463000C9463000C94630074
:100080000C9463000C9463000C94630011241FBE55
:10009000CFEFD0E1DEBFCDBF11E0A0E0B1E0EAE0FC
:1000A000F9E002C005900D92AC32B107D9F711E02A
:1000B000ACE2B1E001C01D92AC33B107E1F70E94A0
:1000C00020040C9483040C940000DF93CF9300D0A1
:1000D0000F92CDB7DEB78B838B8189830CC08AE406
:1000E0008A8303C08A8181508A838A818823D1F7D9
:1000F0008981815089838981882389F70F900F90A6
:100100000F90CF91DF910895DF93CF9300D000D06F
:1001100000D0CDB7DEB79E838D838D819E819C8379
:100120008B8313C088E290E09A83898305C089811C
:100130009A8101979A83898389819A810097B9F777
:100140008B819C8101979C838B838B819C81009701
:1001500049F726960FB6F894DEBF0FBECDBFCF91FC
:10016000DF910895DF93CF9300D0CDB7DEB78983B9
:1001700001C0000089818A838A81882311F081E08F
:100180008A838A81998191509983882391F70F906E
:100190000F90CF91DF910895DF93CF930F92CDB75A
:1001A000DEB78983A2E3B0E0E2E3F0E080818B7FF9
:1001B0008C93A2E3B0E0E2E3F0E080818E7F8C9349
:1001C000A2E3B0E0E2E3F0E080818D7F8C93EBE38B
:1001D000F0E089818083A2E3B0E0E2E3F0E0808197
:1001E00084608C938AE090E00E948400A2E3B0E0F7
:1001F000E2E3F0E080818B7F8C930F90CF91DF91D1
:100200000895DF93CF930F92CDB7DEB78983A2E332
:10021000B0E0E2E3F0E080818B7F8C93A2E3B0E07A
:10022000E2E3F0E0808181608C93A2E3B0E0E2E35E
:10023000F0E080818D7F8C93EBE3F0E08981808317
:10024000A2E3B0E0E2E3F0E0808184608C938AE096
:1002500090E00E948400A2E3B0E0E2E3F0E080815D
:100260008B7F8C930F90CF91DF910895DF93CF9385
:10027000CDB7DEB786E990E00E94840088E30E9453
:10028000CC0082E390E00E94840088E30E94CC00CE
:1002900082E390E00E94840088E30E94CC0088E31F
:1002A0000E94CC0088E00E94CC0081E00E94CC003B
:1002B00086E00E94CC008CE00E94CC00CF91DF91C0
:1002C0000895DF93CF9300D0CDB7DEB789836A83DB
:1002D00089810E94CC008A810E9401010F900F90B9
:1002E000CF91DF910895DF93CF93CDB7DEB78091A3
:1002F000370194E6692F0E947704882F90E0FC0173
:10030000EE5DFE4F908182E8692F0E94610180912D
:10031000370194E6692F0E947704892F9AE0692FAC
:100320000E947704882F90E0FC01EE5DFE4F9081E3
:1003300083E8692F0E946101809137019AE0692F5B
:100340000E947704892F882F90E0FC01EE5DFE4F1C
:10035000908184E8692F0E9461018091320194E6C6
:10036000692F0E947704882F90E0FC01EE5DFE4F1C
:10037000908186E8692F0E9461018091320194E6A4
:10038000692F0E947704892F9AE0692F0E947704D1
:10039000882F90E0FC01EE5DFE4F908187E8692F89
:1003A0000E946101809132019AE0692F0E947704D6
:1003B000892F882F90E0FC01EE5DFE4F908188E848
:1003C000692F0E94610180912F0194E6692F0E949C
:1003D0007704882F90E0FC01EE5DFE4F908182EC67
:1003E000692F0E94610180912F0194E6692F0E947C
:1003F0007704892F9AE0692F0E947704882F90E074
:10040000FC01EE5DFE4F908183EC692F0E9461013B
:1004100080912F019AE0692F0E947704892F882FFD
:1004200090E0FC01EE5DFE4F908184EC692F0E940C
:1004300061018091340194E6692F0E947704882F2E
:1004400090E0FC01EE5DFE4F908186EC692F0E94EA
:1004500061018091340194E6692F0E947704892F0D
:100460009AE0692F0E947704882F90E0FC01EE5DEE
:10047000FE4F908187EC692F0E94610180913401C9
:100480009AE0692F0E947704892F882F90E0FC0161
:10049000EE5DFE4F908188EC692F0E946101809192
:1004A0002E0194E6692F0E947704882F90E0FC01CA
:1004B000EE5DFE4F90818DEC692F0E94610180916D
:1004C0002E0194E6692F0E947704892F9AE0692F04
:1004D0000E947704882F90E0FC01EE5DFE4F908132
:1004E0008EEC692F0E94610180912E019AE0692FA4
:1004F0000E947704892F882F90E0FC01EE5DFE4F6B
:1005000090818FEC692F0E946101CF91DF91089556
:10051000DF93CF9300D000D00F92CDB7DEB7198212
:1005200074C082E080933A01E3E3F0E08081882F99
:1005300090E081709070009789F480913A018B83EC
:100540008B818C838C81882311F081E08C839C814A
:100550008B818F5F80933A01992331F780913A0123
:10056000813009F456C081E00E94B20081E00E940F
:10057000B20081E00E94B200000000000000000014
:10058000000000000000000000000000000000006B
:1005900010923501E3E3F0E08081882F90E08170D4
:1005A0009070882319F081E08093350182E0809378
:1005B0003A01E3E3F0E08081882F90E08170907051
:1005C000982F81E08927882389F480913A018A83D2
:1005D0008A818D838D81882311F081E08D839D81B7
:1005E0008A818F5F80933A01992319F780913601B0
:1005F000880F809336019091360180913501892BC7
:100600008093360189818F5F89838981883008F4DE
:1006100088CF0F900F900F900F900F90CF91DF9198
:100620000895DF93CF9300D000D0CDB7DEB7A4E319
:10063000B0E0E4E3F0E0808181608C93A5E3B0E07A
:10064000E5E3F0E080818E7F8C9388EC0E9465006A
:10065000A4E3B0E0E4E3F0E080818E7F8C93A5E337
:10066000B0E0E5E3F0E0808181608C9381E00E945E
:10067000B20081E00E94B20081E00E94B20081E0FD
:100680000E94B200E3E3F0E08081882F90E0817067
:100690009070882319F081E080933A01E3E3F0E061
:1006A0008081882F90E081709070009709F0C1C020
:1006B00082E080933A01E3E3F0E08081882F90E0CC
:1006C00081709070009789F480913A018A838A81C1
:1006D0008B838B81882311F081E08B839B818A81BE
:1006E0008F5F80933A01992331F780913A018130ED
:1006F00009F49FC082E080933A01E3E3F0E0808157
:10070000882F90E081709070982F81E0892788234E
:1007100089F480913A01898389818C838C81882333
:1007200011F081E08C839C8189818F5F80933A01F5
:10073000992319F780913A01813009F47AC00E9417
:10074000880280913A01813009F473C080913601AA
:1007500080933B010E94880280913A01813009F424
:1007600068C080913601809339010E94880280918F
:100770003A01813009F45DC08091360180933001E7
:100780000E94880280913A01813009F452C0809120
:100790003601809338010E94880280913A018130AD
:1007A00009F447C08091360180933301A4E3B0E09F
:1007B000E4E3F0E080818E7F8C93A5E3B0E0E5E395
:1007C000F0E0808181608C939091300180913801BC
:1007D000980F80913B01980F80913901890F809388
:1007E000350190913501809133019817A1F48091E2
:1007F0003B018093370180913901809332018091D0
:10080000300180932F0180913801809334018091D1
:10081000330180932E01A4E3B0E0E4E3F0E08081B3
:100820008E7F8C93A5E3B0E0E5E3F0E0808181600A
:100830008C930F900F900F900F90CF91DF910895B0
:10084000DF93CF93CDB7DEB7EAE3F0E08FEF80839D
:10085000E1E3F0E08FEF80830E94360180E80E94A0
:10086000CC0010922D0110922C0113C080912C010C
:1008700090912D01FC01E050FF4F80810E94010109
:1008800080912C0190912D01019690932D018093E0
:100890002C0180912C0190912D018031910530F334
:1008A00080EC0E94CC0010922D0110922C0113C0FC
:1008B00080912C0190912D01FC01EF5EFE4F808113
:1008C0000E94010180912C0190912D01019690933D
:1008D0002D0180932C0180912C0190912D0180316C
:1008E000910530F30E9411030E947301FBCF991B05
:1008F00079E004C0991F961708F0961B881F7A9517
:0A090000C9F780950895F894FFCF21
:10090A00483A2020202E202020255248202020202E
:10091A0000543A2020202E2020204320563A20201E
:0C092A0020003031323334353637383994
:00000001FF
